{
  "contractName": "Ballot",
  "abi": [
    {
      "inputs": [
        {
          "internalType": "uint256",
          "name": "startTime_",
          "type": "uint256"
        },
        {
          "internalType": "uint256",
          "name": "endTime_",
          "type": "uint256"
        }
      ],
      "payable": false,
      "stateMutability": "nonpayable",
      "type": "constructor"
    },
    {
      "constant": true,
      "inputs": [
        {
          "internalType": "uint256",
          "name": "",
          "type": "uint256"
        }
      ],
      "name": "candidates",
      "outputs": [
        {
          "internalType": "string",
          "name": "name",
          "type": "string"
        },
        {
          "internalType": "string",
          "name": "partyShortcut",
          "type": "string"
        },
        {
          "internalType": "string",
          "name": "partyFlag",
          "type": "string"
        },
        {
          "internalType": "uint256",
          "name": "nominationNumber",
          "type": "uint256"
        },
        {
          "internalType": "uint8",
          "name": "stateCode",
          "type": "uint8"
        },
        {
          "internalType": "uint8",
          "name": "constituencyCode",
          "type": "uint8"
        }
      ],
      "payable": false,
      "stateMutability": "view",
      "type": "function"
    },
    {
      "constant": true,
      "inputs": [
        {
          "internalType": "uint256",
          "name": "voterAadharNumber",
          "type": "uint256"
        }
      ],
      "name": "getCandidateList",
      "outputs": [
        {
          "components": [
            {
              "internalType": "string",
              "name": "name",
              "type": "string"
            },
            {
              "internalType": "string",
              "name": "partyShortcut",
              "type": "string"
            },
            {
              "internalType": "string",
              "name": "partyFlag",
              "type": "string"
            },
            {
              "internalType": "uint256",
              "name": "nominationNumber",
              "type": "uint256"
            },
            {
              "internalType": "uint8",
              "name": "stateCode",
              "type": "uint8"
            },
            {
              "internalType": "uint8",
              "name": "constituencyCode",
              "type": "uint8"
            }
          ],
          "internalType": "struct Types.Candidate[]",
          "name": "",
          "type": "tuple[]"
        }
      ],
      "payable": false,
      "stateMutability": "view",
      "type": "function"
    },
    {
      "constant": true,
      "inputs": [
        {
          "internalType": "uint256",
          "name": "voterAadharNumber",
          "type": "uint256"
        }
      ],
      "name": "isVoterEligible",
      "outputs": [
        {
          "internalType": "bool",
          "name": "voterEligible_",
          "type": "bool"
        }
      ],
      "payable": false,
      "stateMutability": "view",
      "type": "function"
    },
    {
      "constant": true,
      "inputs": [
        {
          "internalType": "uint256",
          "name": "voterAadharNumber",
          "type": "uint256"
        }
      ],
      "name": "didCurrentVoterVoted",
      "outputs": [
        {
          "internalType": "bool",
          "name": "userVoted_",
          "type": "bool"
        },
        {
          "components": [
            {
              "internalType": "string",
              "name": "name",
              "type": "string"
            },
            {
              "internalType": "string",
              "name": "partyShortcut",
              "type": "string"
            },
            {
              "internalType": "string",
              "name": "partyFlag",
              "type": "string"
            },
            {
              "internalType": "uint256",
              "name": "nominationNumber",
              "type": "uint256"
            },
            {
              "internalType": "uint8",
              "name": "stateCode",
              "type": "uint8"
            },
            {
              "internalType": "uint8",
              "name": "constituencyCode",
              "type": "uint8"
            }
          ],
          "internalType": "struct Types.Candidate",
          "name": "candidate_",
          "type": "tuple"
        }
      ],
      "payable": false,
      "stateMutability": "view",
      "type": "function"
    },
    {
      "constant": false,
      "inputs": [
        {
          "internalType": "uint256",
          "name": "nominationNumber",
          "type": "uint256"
        },
        {
          "internalType": "uint256",
          "name": "voterAadharNumber",
          "type": "uint256"
        },
        {
          "internalType": "uint256",
          "name": "currentTime_",
          "type": "uint256"
        }
      ],
      "name": "vote",
      "outputs": [],
      "payable": false,
      "stateMutability": "nonpayable",
      "type": "function"
    },
    {
      "constant": true,
      "inputs": [],
      "name": "getVotingEndTime",
      "outputs": [
        {
          "internalType": "uint256",
          "name": "endTime_",
          "type": "uint256"
        }
      ],
      "payable": false,
      "stateMutability": "view",
      "type": "function"
    },
    {
      "constant": false,
      "inputs": [
        {
          "internalType": "uint256",
          "name": "startTime_",
          "type": "uint256"
        },
        {
          "internalType": "uint256",
          "name": "currentTime_",
          "type": "uint256"
        }
      ],
      "name": "updateVotingStartTime",
      "outputs": [],
      "payable": false,
      "stateMutability": "nonpayable",
      "type": "function"
    },
    {
      "constant": false,
      "inputs": [
        {
          "internalType": "uint256",
          "name": "endTime_",
          "type": "uint256"
        },
        {
          "internalType": "uint256",
          "name": "currentTime_",
          "type": "uint256"
        }
      ],
      "name": "extendVotingTime",
      "outputs": [],
      "payable": false,
      "stateMutability": "nonpayable",
      "type": "function"
    },
    {
      "constant": true,
      "inputs": [
        {
          "internalType": "uint256",
          "name": "currentTime_",
          "type": "uint256"
        }
      ],
      "name": "getResults",
      "outputs": [
        {
          "components": [
            {
              "internalType": "string",
              "name": "name",
              "type": "string"
            },
            {
              "internalType": "string",
              "name": "partyShortcut",
              "type": "string"
            },
            {
              "internalType": "string",
              "name": "partyFlag",
              "type": "string"
            },
            {
              "internalType": "uint256",
              "name": "voteCount",
              "type": "uint256"
            },
            {
              "internalType": "uint256",
              "name": "nominationNumber",
              "type": "uint256"
            },
            {
              "internalType": "uint8",
              "name": "stateCode",
              "type": "uint8"
            },
            {
              "internalType": "uint8",
              "name": "constituencyCode",
              "type": "uint8"
            }
          ],
          "internalType": "struct Types.Results[]",
          "name": "",
          "type": "tuple[]"
        }
      ],
      "payable": false,
      "stateMutability": "view",
      "type": "function"
    }
  ],
  "bytecode": "0x60806040523480156200001157600080fd5b50604051620025c1380380620025c183398181016040526200003791908101906200083a565b62000047620000ae60201b60201c565b620000576200049a60201b60201c565b816005819055508060068190555033600460006101000a81548173ffffffffffffffffffffffffffffffffffffffff021916908373ffffffffffffffffffffffffffffffffffffffff16021790555050506200089f565b6060600e604051908082528060200260200182016040528015620000ef57816020015b620000db62000738565b815260200190600190039081620000d15790505b5090506040518060c001604052806040518060400160405280601281526020017f4368616e6472612042616275204e61696475000000000000000000000000000081525081526020016040518060400160405280600381526020017f544450000000000000000000000000000000000000000000000000000000000081525081526020016040518060800160405280604c815260200162002575604c9139815260200164a96106e5a68152602001600a60ff168152602001600160ff1681525081600081518110620001bd57fe5b60200260200101819052506040518060c001604052806040518060400160405280601181526020017f4a6167616e204d6f68616e20526564647900000000000000000000000000000081525081526020016040518060400160405280600581526020017f595352435000000000000000000000000000000000000000000000000000000081525081526020016040518060800160405280604e815260200162002527604e9139815260200164c27e5da76e8152602001600a60ff168152602001600160ff16815250816001815181106200029357fe5b602002602001018190525060008090505b81518110156200049657818181518110620002bb57fe5b602002602001015160026000848481518110620002d457fe5b602002602001015160600151815260200190815260200160002060008201518160000190805190602001906200030c92919062000774565b5060208201518160010190805190602001906200032b92919062000774565b5060408201518160020190805190602001906200034a92919062000774565b506060820151816003015560808201518160040160006101000a81548160ff021916908360ff16021790555060a08201518160040160016101000a81548160ff021916908360ff1602179055509050506000828281518110620003a957fe5b6020026020010151908060018154018082558091505090600182039060005260206000209060050201600090919290919091506000820151816000019080519060200190620003fa92919062000774565b5060208201518160010190805190602001906200041992919062000774565b5060408201518160020190805190602001906200043892919062000774565b506060820151816003015560808201518160040160006101000a81548160ff021916908360ff16021790555060a08201518160040160016101000a81548160ff021916908360ff1602179055505050508080600101915050620002a4565b5050565b6040518060e0016040528064704892d02481526020016040518060400160405280600881526020017f68617273686974680000000000000000000000000000000000000000000000008152508152602001601560ff168152602001600a60ff168152602001600160ff16815260200160011515815260200160008152506001600064704892d02481526020019081526020016000206000820151816000015560208201518160010190805190602001906200055792919062000774565b5060408201518160020160006101000a81548160ff021916908360ff16021790555060608201518160020160016101000a81548160ff021916908360ff16021790555060808201518160020160026101000a81548160ff021916908360ff16021790555060a08201518160020160036101000a81548160ff02191690831515021790555060c082015181600301559050506040518060e00160405280647be4f5771b81526020016040518060400160405280600681526020017f73686f69616200000000000000000000000000000000000000000000000000008152508152602001602560ff168152602001600a60ff168152602001600160ff168152602001600015158152602001600081525060016000647be4f5771b8152602001908152602001600020600082015181600001556020820151816001019080519060200190620006a592919062000774565b5060408201518160020160006101000a81548160ff021916908360ff16021790555060608201518160020160016101000a81548160ff021916908360ff16021790555060808201518160020160026101000a81548160ff021916908360ff16021790555060a08201518160020160036101000a81548160ff02191690831515021790555060c08201518160030155905050565b6040518060c0016040528060608152602001606081526020016060815260200160008152602001600060ff168152602001600060ff1681525090565b828054600181600116156101000203166002900490600052602060002090601f016020900481019282601f10620007b757805160ff1916838001178555620007e8565b82800160010185558215620007e8579182015b82811115620007e7578251825591602001919060010190620007ca565b5b509050620007f79190620007fb565b5090565b6200082091905b808211156200081c57600081600090555060010162000802565b5090565b90565b600081519050620008348162000885565b92915050565b600080604083850312156200084e57600080fd5b60006200085e8582860162000823565b9250506020620008718582860162000823565b9150509250929050565b6000819050919050565b62000890816200087b565b81146200089c57600080fd5b50565b611c7880620008af6000396000f3fe608060405234801561001057600080fd5b50600436106100935760003560e01c806381a60c0d1161006657806381a60c0d1461014a5780638a6655d61461017a578063b1bf87b014610196578063b9d84552146101b4578063dce8d8a3146101d057610093565b80633477ee2e146100985780635d816e22146100cd5780635e23c37c146100e9578063618bde0a1461011a575b600080fd5b6100b260048036036100ad919081019061159d565b610200565b6040516100c496959493929190611a87565b60405180910390f35b6100e760048036036100e291908101906115c6565b61042b565b005b61010360048036036100fe919081019061159d565b6104ac565b604051610111929190611a57565b60405180910390f35b610134600480360361012f919081019061159d565b61073f565b60405161014191906119f8565b60405180910390f35b610164600480360361015f919081019061159d565b610b96565b6040516101719190611a1a565b60405180910390f35b610194600480360361018f9190810190611602565b610f2a565b005b61019e6113ad565b6040516101ab9190611afd565b60405180910390f35b6101ce60048036036101c991908101906115c6565b6113b7565b005b6101ea60048036036101e5919081019061159d565b61142a565b6040516101f79190611a3c565b60405180910390f35b6000818154811061020d57fe5b9060005260206000209060050201600091509050806000018054600181600116156101000203166002900480601f0160208091040260200160405190810160405280929190818152602001828054600181600116156101000203166002900480156102b95780601f1061028e576101008083540402835291602001916102b9565b820191906000526020600020905b81548152906001019060200180831161029c57829003601f168201915b505050505090806001018054600181600116156101000203166002900480601f0160208091040260200160405190810160405280929190818152602001828054600181600116156101000203166002900480156103575780601f1061032c57610100808354040283529160200191610357565b820191906000526020600020905b81548152906001019060200180831161033a57829003601f168201915b505050505090806002018054600181600116156101000203166002900480601f0160208091040260200160405190810160405280929190818152602001828054600181600116156101000203166002900480156103f55780601f106103ca576101008083540402835291602001916103f5565b820191906000526020600020905b8154815290600101906020018083116103d857829003601f168201915b5050505050908060030154908060040160009054906101000a900460ff16908060040160019054906101000a900460ff16905086565b600460009054906101000a900473ffffffffffffffffffffffffffffffffffffffff1673ffffffffffffffffffffffffffffffffffffffff163373ffffffffffffffffffffffffffffffffffffffff161461048557600080fd5b806005541061049357600080fd5b80600654116104a157600080fd5b816006819055505050565b60006104b6611485565b6000600160008581526020019081526020016000206003015414159150811561073a5760026000600160008681526020019081526020016000206003015481526020019081526020016000206040518060c0016040529081600082018054600181600116156101000203166002900480601f0160208091040260200160405190810160405280929190818152602001828054600181600116156101000203166002900480156105a65780601f1061057b576101008083540402835291602001916105a6565b820191906000526020600020905b81548152906001019060200180831161058957829003601f168201915b50505050508152602001600182018054600181600116156101000203166002900480601f0160208091040260200160405190810160405280929190818152602001828054600181600116156101000203166002900480156106485780601f1061061d57610100808354040283529160200191610648565b820191906000526020600020905b81548152906001019060200180831161062b57829003601f168201915b50505050508152602001600282018054600181600116156101000203166002900480601f0160208091040260200160405190810160405280929190818152602001828054600181600116156101000203166002900480156106ea5780601f106106bf576101008083540402835291602001916106ea565b820191906000526020600020905b8154815290600101906020018083116106cd57829003601f168201915b50505050508152602001600382015481526020016004820160009054906101000a900460ff1660ff1660ff1681526020016004820160019054906101000a900460ff1660ff1660ff168152505090505b915091565b60606000600160008481526020019081526020016000209050600080905060008090505b60008054905081101561081d576000818154811061077d57fe5b906000526020600020906005020160040160009054906101000a900460ff1660ff168360020160019054906101000a900460ff1660ff161480156108025750600081815481106107c957fe5b906000526020600020906005020160040160019054906101000a900460ff1660ff168360020160029054906101000a900460ff1660ff16145b156108105781806001019250505b8080600101915050610763565b5060608160405190808252806020026020018201604052801561085a57816020015b6108476114c1565b81526020019060019003908161083f5790505b509050600080905060008090505b600080549050811015610b89576000818154811061088257fe5b906000526020600020906005020160040160009054906101000a900460ff1660ff168560020160019054906101000a900460ff1660ff161480156109075750600081815481106108ce57fe5b906000526020600020906005020160040160019054906101000a900460ff1660ff168560020160029054906101000a900460ff1660ff16145b15610b7c576000818154811061091957fe5b90600052602060002090600502016040518060c0016040529081600082018054600181600116156101000203166002900480601f0160208091040260200160405190810160405280929190818152602001828054600181600116156101000203166002900480156109cb5780601f106109a0576101008083540402835291602001916109cb565b820191906000526020600020905b8154815290600101906020018083116109ae57829003601f168201915b50505050508152602001600182018054600181600116156101000203166002900480601f016020809104026020016040519081016040528092919081815260200182805460018160011615610100020316600290048015610a6d5780601f10610a4257610100808354040283529160200191610a6d565b820191906000526020600020905b815481529060010190602001808311610a5057829003601f168201915b50505050508152602001600282018054600181600116156101000203166002900480601f016020809104026020016040519081016040528092919081815260200182805460018160011615610100020316600290048015610b0f5780601f10610ae457610100808354040283529160200191610b0f565b820191906000526020600020905b815481529060010190602001808311610af257829003601f168201915b50505050508152602001600382015481526020016004820160009054906101000a900460ff1660ff1660ff1681526020016004820160019054906101000a900460ff1660ff1660ff1681525050838381518110610b6857fe5b602002602001018190525081806001019250505b8080600101915050610868565b5081945050505050919050565b60608160065410610ba657600080fd5b6060600080549050604051908082528060200260200182016040528015610be757816020015b610bd46114fd565b815260200190600190039081610bcc5790505b50905060008090505b600080549050811015610f20576040518060e0016040528060008381548110610c1557fe5b90600052602060002090600502016000018054600181600116156101000203166002900480601f016020809104026020016040519081016040528092919081815260200182805460018160011615610100020316600290048015610cba5780601f10610c8f57610100808354040283529160200191610cba565b820191906000526020600020905b815481529060010190602001808311610c9d57829003601f168201915b5050505050815260200160008381548110610cd157fe5b90600052602060002090600502016001018054600181600116156101000203166002900480601f016020809104026020016040519081016040528092919081815260200182805460018160011615610100020316600290048015610d765780601f10610d4b57610100808354040283529160200191610d76565b820191906000526020600020905b815481529060010190602001808311610d5957829003601f168201915b5050505050815260200160008381548110610d8d57fe5b90600052602060002090600502016002018054600181600116156101000203166002900480601f016020809104026020016040519081016040528092919081815260200182805460018160011615610100020316600290048015610e325780601f10610e0757610100808354040283529160200191610e32565b820191906000526020600020905b815481529060010190602001808311610e1557829003601f168201915b5050505050815260200160036000808581548110610e4c57fe5b906000526020600020906005020160030154815260200190815260200160002054815260200160008381548110610e7f57fe5b906000526020600020906005020160030154815260200160008381548110610ea357fe5b906000526020600020906005020160040160009054906101000a900460ff1660ff16815260200160008381548110610ed757fe5b906000526020600020906005020160040160019054906101000a900460ff1660ff16815250828281518110610f0857fe5b60200260200101819052508080600101915050610bf0565b5080915050919050565b80600554811015610f3a57600080fd5b600654811115610f4957600080fd5b8284610f53611540565b600160008481526020019081526020016000206040518060e001604052908160008201548152602001600182018054600181600116156101000203166002900480601f0160208091040260200160405190810160405280929190818152602001828054600181600116156101000203166002900480156110145780601f10610fe957610100808354040283529160200191611014565b820191906000526020600020905b815481529060010190602001808311610ff757829003601f168201915b505050505081526020016002820160009054906101000a900460ff1660ff1660ff1681526020016002820160019054906101000a900460ff1660ff1660ff1681526020016002820160029054906101000a900460ff1660ff1660ff1681526020016002820160039054906101000a900460ff1615151515815260200160038201548152505090506110a3611485565b600260008481526020019081526020016000206040518060c0016040529081600082018054600181600116156101000203166002900480601f01602080910402602001604051908101604052809291908181526020018280546001816001161561010002031660029004801561115a5780601f1061112f5761010080835404028352916020019161115a565b820191906000526020600020905b81548152906001019060200180831161113d57829003601f168201915b50505050508152602001600182018054600181600116156101000203166002900480601f0160208091040260200160405190810160405280929190818152602001828054600181600116156101000203166002900480156111fc5780601f106111d1576101008083540402835291602001916111fc565b820191906000526020600020905b8154815290600101906020018083116111df57829003601f168201915b50505050508152602001600282018054600181600116156101000203166002900480601f01602080910402602001604051908101604052809291908181526020018280546001816001161561010002031660029004801561129e5780601f106112735761010080835404028352916020019161129e565b820191906000526020600020905b81548152906001019060200180831161128157829003601f168201915b50505050508152602001600382015481526020016004820160009054906101000a900460ff1660ff1660ff1681526020016004820160019054906101000a900460ff1660ff1660ff168152505090506012826040015160ff16101561130257600080fd5b8160a0015161131057600080fd5b60008260c001511461132157600080fd5b816060015160ff16816080015160ff1614801561134b5750816080015160ff168160a0015160ff16145b61135457600080fd5b8760016000898152602001908152602001600020600301819055506000600360008a815260200190815260200160002054905060018101600360008b815260200190815260200160002081905550505050505050505050565b6000600654905090565b600460009054906101000a900473ffffffffffffffffffffffffffffffffffffffff1673ffffffffffffffffffffffffffffffffffffffff163373ffffffffffffffffffffffffffffffffffffffff161461141157600080fd5b806005541161141f57600080fd5b816005819055505050565b60008060016000848152602001908152602001600020905060128160020160009054906101000a900460ff1660ff161015801561147557508060020160039054906101000a900460ff165b1561147f57600191505b50919050565b6040518060c0016040528060608152602001606081526020016060815260200160008152602001600060ff168152602001600060ff1681525090565b6040518060c0016040528060608152602001606081526020016060815260200160008152602001600060ff168152602001600060ff1681525090565b6040518060e001604052806060815260200160608152602001606081526020016000815260200160008152602001600060ff168152602001600060ff1681525090565b6040518060e001604052806000815260200160608152602001600060ff168152602001600060ff168152602001600060ff168152602001600015158152602001600081525090565b60008135905061159781611c1e565b92915050565b6000602082840312156115af57600080fd5b60006115bd84828501611588565b91505092915050565b600080604083850312156115d957600080fd5b60006115e785828601611588565b92505060206115f885828601611588565b9150509250929050565b60008060006060848603121561161757600080fd5b600061162586828701611588565b935050602061163686828701611588565b925050604061164786828701611588565b9150509250925092565b600061165d838361187b565b905092915050565b60006116718383611912565b905092915050565b600061168482611b38565b61168e8185611b73565b9350836020820285016116a085611b18565b8060005b858110156116dc57848403895281516116bd8582611651565b94506116c883611b59565b925060208a019950506001810190506116a4565b50829750879550505050505092915050565b60006116f982611b43565b6117038185611b84565b93508360208202850161171585611b28565b8060005b8581101561175157848403895281516117328582611665565b945061173d83611b66565b925060208a01995050600181019050611719565b50829750879550505050505092915050565b61176c81611bb7565b82525050565b600061177d82611b4e565b6117878185611b95565b9350611797818560208601611bda565b6117a081611c0d565b840191505092915050565b60006117b682611b4e565b6117c08185611ba6565b93506117d0818560208601611bda565b6117d981611c0d565b840191505092915050565b600060c08301600083015184820360008601526118018282611772565b9150506020830151848203602086015261181b8282611772565b915050604083015184820360408601526118358282611772565b915050606083015161184a60608601826119bc565b50608083015161185d60808601826119da565b5060a083015161187060a08601826119da565b508091505092915050565b600060c08301600083015184820360008601526118988282611772565b915050602083015184820360208601526118b28282611772565b915050604083015184820360408601526118cc8282611772565b91505060608301516118e160608601826119bc565b5060808301516118f460808601826119da565b5060a083015161190760a08601826119da565b508091505092915050565b600060e083016000830151848203600086015261192f8282611772565b915050602083015184820360208601526119498282611772565b915050604083015184820360408601526119638282611772565b915050606083015161197860608601826119bc565b50608083015161198b60808601826119bc565b5060a083015161199e60a08601826119da565b5060c08301516119b160c08601826119da565b508091505092915050565b6119c581611bc3565b82525050565b6119d481611bc3565b82525050565b6119e381611bcd565b82525050565b6119f281611bcd565b82525050565b60006020820190508181036000830152611a128184611679565b905092915050565b60006020820190508181036000830152611a3481846116ee565b905092915050565b6000602082019050611a516000830184611763565b92915050565b6000604082019050611a6c6000830185611763565b8181036020830152611a7e81846117e4565b90509392505050565b600060c0820190508181036000830152611aa181896117ab565b90508181036020830152611ab581886117ab565b90508181036040830152611ac981876117ab565b9050611ad860608301866119cb565b611ae560808301856119e9565b611af260a08301846119e9565b979650505050505050565b6000602082019050611b1260008301846119cb565b92915050565b6000819050602082019050919050565b6000819050602082019050919050565b600081519050919050565b600081519050919050565b600081519050919050565b6000602082019050919050565b6000602082019050919050565b600082825260208201905092915050565b600082825260208201905092915050565b600082825260208201905092915050565b600082825260208201905092915050565b60008115159050919050565b6000819050919050565b600060ff82169050919050565b60005b83811015611bf8578082015181840152602081019050611bdd565b83811115611c07576000848401525b50505050565b6000601f19601f8301169050919050565b611c2781611bc3565b8114611c3257600080fd5b5056fea365627a7a72315820d1198934ef0aa96ce13b87a48047590e956b1725adeb745e7d205b0ee75438c66c6578706572696d656e74616cf564736f6c6343000510004068747470733a2f2f7265732e636c6f7564696e6172792e636f6d2f646a3974747362676d2f696d6167652f75706c6f61642f76313634383130313036352f79737263705f7361733331312e706e6768747470733a2f2f7265732e636c6f7564696e6172792e636f6d2f646a3974747362676d2f696d6167652f75706c6f61642f76313634383130313036352f7464705f716831726b6a2e706e67",
  "source": "// SPDX-License-Identifier: MIT \r\npragma solidity >=0.4.25 <0.9.0;\r\npragma experimental ABIEncoderV2;\r\n\r\nimport \"./Types.sol\";\r\n\r\ncontract Ballot {\r\n    Types.Candidate[] public candidates;\r\n    mapping(uint256 => Types.Voter) voter;\r\n    mapping(uint256 => Types.Candidate) candidate;\r\n    mapping(uint256 => uint256) internal votesCount;\r\n\r\n    address electionChief;\r\n    uint256 private votingStartTime;\r\n    uint256 private votingEndTime;\r\n\r\n    constructor(uint256 startTime_, uint256 endTime_) public {\r\n        initializeCandidateDatabase_();\r\n        initializeVoterDatabase_();\r\n        votingStartTime = startTime_;\r\n        votingEndTime = endTime_;\r\n        electionChief = msg.sender;\r\n    }\r\n\r\n    function getCandidateList(uint256 voterAadharNumber)\r\n        public\r\n        view\r\n        returns (Types.Candidate[] memory)\r\n    {\r\n        Types.Voter storage voter_ = voter[voterAadharNumber];\r\n        uint256 _politicianOfMyConstituencyLength = 0;\r\n\r\n        for (uint256 i = 0; i < candidates.length; i++) {\r\n            if (\r\n                voter_.stateCode == candidates[i].stateCode &&\r\n                voter_.constituencyCode == candidates[i].constituencyCode\r\n            ) _politicianOfMyConstituencyLength++;\r\n        }\r\n        Types.Candidate[] memory cc = new Types.Candidate[](\r\n            _politicianOfMyConstituencyLength\r\n        );\r\n\r\n        uint256 _indx = 0;\r\n        for (uint256 i = 0; i < candidates.length; i++) {\r\n            if (\r\n                voter_.stateCode == candidates[i].stateCode &&\r\n                voter_.constituencyCode == candidates[i].constituencyCode\r\n            ) {\r\n                cc[_indx] = candidates[i];\r\n                _indx++;\r\n            }\r\n        }\r\n        return cc;\r\n    }\r\n\r\n    function isVoterEligible(uint256 voterAadharNumber)\r\n        public\r\n        view\r\n        returns (bool voterEligible_)\r\n    {\r\n        Types.Voter storage voter_ = voter[voterAadharNumber];\r\n        if (voter_.age >= 18 && voter_.isAlive) voterEligible_ = true;\r\n    }\r\n\r\n\r\n    function didCurrentVoterVoted(uint256 voterAadharNumber)\r\n        public\r\n        view\r\n        returns (bool userVoted_, Types.Candidate memory candidate_)\r\n    {\r\n        userVoted_ = (voter[voterAadharNumber].votedTo != 0);\r\n        if (userVoted_)\r\n            candidate_ = candidate[voter[voterAadharNumber].votedTo];\r\n    }\r\n\r\n    function vote(\r\n        uint256 nominationNumber,\r\n        uint256 voterAadharNumber,\r\n        uint256 currentTime_\r\n    )\r\n        public\r\n        votingLinesAreOpen(currentTime_)\r\n        isEligibleVote(voterAadharNumber, nominationNumber)\r\n    {\r\n        // updating the current voter values\r\n        voter[voterAadharNumber].votedTo = nominationNumber;\r\n\r\n        // updates the votes the politician\r\n        uint256 voteCount_ = votesCount[nominationNumber];\r\n        votesCount[nominationNumber] = voteCount_ + 1;\r\n    }\r\n\r\n    function getVotingEndTime() public view returns (uint256 endTime_) {\r\n        endTime_ = votingEndTime;\r\n    }\r\n\r\n    function updateVotingStartTime(uint256 startTime_, uint256 currentTime_)\r\n        public\r\n        isElectionChief\r\n    {\r\n        require(votingStartTime > currentTime_);\r\n        votingStartTime = startTime_;\r\n    }\r\n\r\n\r\n    function extendVotingTime(uint256 endTime_, uint256 currentTime_)\r\n        public\r\n        isElectionChief\r\n    {\r\n        require(votingStartTime < currentTime_);\r\n        require(votingEndTime > currentTime_);\r\n        votingEndTime = endTime_;\r\n    }\r\n\r\n    function getResults(uint256 currentTime_)\r\n        public\r\n        view\r\n        returns (Types.Results[] memory)\r\n    {\r\n        require(votingEndTime < currentTime_);\r\n        Types.Results[] memory resultsList_ = new Types.Results[](\r\n            candidates.length\r\n        );\r\n        for (uint256 i = 0; i < candidates.length; i++) {\r\n            resultsList_[i] = Types.Results({\r\n                name: candidates[i].name,\r\n                partyShortcut: candidates[i].partyShortcut,\r\n                partyFlag: candidates[i].partyFlag,\r\n                nominationNumber: candidates[i].nominationNumber,\r\n                stateCode: candidates[i].stateCode,\r\n                constituencyCode: candidates[i].constituencyCode,\r\n                voteCount: votesCount[candidates[i].nominationNumber]\r\n            });\r\n        }\r\n        return resultsList_;\r\n    }\r\n\r\n\r\n    modifier votingLinesAreOpen(uint256 currentTime_) {\r\n        require(currentTime_ >= votingStartTime);\r\n        require(currentTime_ <= votingEndTime);\r\n        _;\r\n    }\r\n\r\n\r\n    modifier isEligibleVote(uint256 voterAadhar_, uint256 nominationNumber_) {\r\n        Types.Voter memory voter_ = voter[voterAadhar_];\r\n        Types.Candidate memory politician_ = candidate[nominationNumber_];\r\n        require(voter_.age >= 18);\r\n        require(voter_.isAlive);\r\n        require(voter_.votedTo == 0);\r\n        require(\r\n            (politician_.stateCode == voter_.stateCode &&\r\n                politician_.constituencyCode == voter_.constituencyCode)\r\n        );\r\n        _;\r\n    }\r\n\r\n    modifier isElectionChief() {\r\n        require(msg.sender == electionChief);\r\n        _;\r\n    }\r\n\r\nfunction initializeCandidateDatabase_() internal {\r\n        Types.Candidate[] memory candidates_ = new Types.Candidate[](14);\r\n\r\n        // Andhra Pradesh\r\n        candidates_[0] = Types.Candidate({\r\n            name: \"Chandra Babu Naidu\",\r\n            partyShortcut: \"TDP\",\r\n            partyFlag: \"https://res.cloudinary.com/dj9ttsbgm/image/upload/v1648101065/tdp_qh1rkj.png\",\r\n            nominationNumber: uint256(727477314982),\r\n            stateCode: uint8(10),\r\n            constituencyCode: uint8(1)\r\n        });\r\n        candidates_[1] = Types.Candidate({\r\n            name: \"Jagan Mohan Reddy\",\r\n            partyShortcut: \"YSRCP\",\r\n            partyFlag: \"https://res.cloudinary.com/dj9ttsbgm/image/upload/v1648101065/ysrcp_sas311.png\",\r\n            nominationNumber: uint256(835343722350),\r\n            stateCode: uint8(10),\r\n            constituencyCode: uint8(1)\r\n        });\r\n        for (uint256 i = 0; i < candidates_.length; i++) {\r\n            candidate[candidates_[i].nominationNumber] = candidates_[i];\r\n            candidates.push(candidates_[i]);\r\n        }\r\n    }\r\n\r\n    function initializeVoterDatabase_() internal {\r\n        // Andhra Pradesh\r\n        voter[uint256(482253918244)] = Types.Voter({\r\n            name: \"harshith\",\r\n            aadharNumber: uint256(482253918244),\r\n            age: uint8(21),\r\n            stateCode: uint8(10),\r\n            constituencyCode: uint8(1),\r\n            isAlive: true,\r\n            votedTo: uint256(0)\r\n        });\r\n        voter[uint256(532122269467)] = Types.Voter({\r\n            name: \"shoiab\",\r\n            aadharNumber: uint256(532122269467),\r\n            age: uint8(37),\r\n            stateCode: uint8(10),\r\n            constituencyCode: uint8(1),\r\n            isAlive: false,\r\n            votedTo: uint256(0)\r\n        });\r\n    }\r\n}\r\n",
  "sourcePath": "C:\\Users\\mahit\\OneDrive\\Desktop\\project\\contracts\\Ballot.sol",
  "compiler": {
    "name": "solc",
    "version": "0.5.16+commit.9c3226ce.Emscripten.clang"
  },
  "schemaVersion": "3.4.16",
  "updatedAt": "2024-02-02T10:13:26.572Z",
  "devdoc": {
    "methods": {}
  },
  "userdoc": {
    "methods": {}
  }
}